:020000040800F2
:10000000302D0020D5200008DD200008DF2000086A
:10001000E1200008E3200008E520000800000000BF
:10002000000000000000000000000000E7200008C1
:10003000E9200008000000009FA80008B73400086D
:10004000EF200008EF200008EF200008EF20000854
:10005000EF200008EF200008B3120008EF2000088E
:10006000EF200008EF200008EF200008EF20000834
:10007000EF200008EF200008EF200008EF20000824
:10008000EF200008EF200008EF200008EF20000814
:10009000EF200008EF200008EF200008EF20000804
:1000A000EF200008EF200008EF200008EF200008F4
:1000B000EF200008EF200008EF200008EF200008E4
:1000C000EF200008EF200008EF200008EF200008D4
:1000D000EF200008EF200008EF200008EF200008C4
:1000E000891B0008F71D0008EF200008EF2000081A
:1000F000EF20000800F002F800F05AF80AA090E89B
:10010000000C82448344AAF10107DA4501D100F0D2
:100110004FF8AFF2090EBAE80F0013F0010F18BF45
:10012000FB1A43F00103184768B7000088B70000C6
:100130000A444FF0000C10F8013B13F0070408BF0D
:1001400010F8014B1D1108BF10F8015B641E05D0AB
:1001500010F8016B641E01F8016BF9D113F0080F60
:100160001EBF10F8014BAD1C0C1B09D16D1E58BFF2
:1001700001F801CBFAD505E014F8016B01F8016B29
:100180006D1EF9D59142D6D370470000002300249C
:1001900000250026103A28BF78C1FBD8520728BF97
:1001A00030C148BF0B6070471FB51FBD10B510BDF3
:1001B0000AF02DFB1146FFF7F7FF00F085F90AF072
:1001C0004BFB03B4FFF7F2FF03BC0AF04FFB000048
:1001D00008B509E04FF48061984807F0DEFE6A46F2
:1001E0000021C82006F01AFEF4E708B509E0012155
:1001F000002007F06DFF6A4600214FF4FA6006F018
:100200000DFEF4E78AB08EA207CA06AB07C38FA221
:1002100007CA03AB07C3002000900190029043E09F
:1002200006A80AF079FA84B2224606A9312000F025
:1002300037FF09AA0021022006F0F0FD06A80AF007
:100240006BFAC4B222466946312000F07DFF684651
:100250000AF062FA04462146684600F05BFD03A8F6
:100260000AF05AFAC4B2224603A9012000F042FF64
:1002700009AA0021C82006F0D1FD03A80AF04CFA13
:10028000C4B222466946012000F087FF68460AF0A2
:1002900043FA04462146684600F03CFD09AA0021C5
:1002A00040F6B83006F0BAFDBAE708B5112437E0D9
:1002B0004FF47A71684800F0B0FF90B914F0010F64
:1002C00029D0102401F05FFEA101644807F05CFE14
:1002D0006946634806F00AFB6946624805F0DEFF9E
:1002E00019E04FF47A715C4800F097FF012812D1B1
:1002F00004F0100010280ED101248101574807F0A6
:1003000041FE00F04FFD6946564806F0EFFA694697
:10031000534805F0C3FF6A460021C82006F07EFD61
:10032000C6E700B58BB000F06CFC0AA803210022E0
:100330000592CDE9062108901046402106224A4B3D
:10034000CDE90132CDE9031005200023474A48A139
:100350000090494805F0E2FB0AA80321002205921B
:10036000CDE90621089010464FF480711922434BC5
:10037000CDE90132CDE9031006200023404A41A116
:100380000090374805F0CAFB0AA803210022059215
:10039000CDE9062108904020810019223B4BCDE990
:1003A0000132CDE9031007200023394A39A100901A
:1003B0002C4805F0B3FB0AA8032100220592CDE9E1
:1003C00006210890104640210622344BCDE9013227
:1003D000CDE9031005200023314A32A100903348B3
:1003E00005F09CFB0AA9324805F059FC0BB000BD92
:1003F00000B58BB001F0CFFF0AA803F063F90AA89B
:10040000032100220592CDE90621089010465021D3
:100410000822284BCDE90132CDE903100420002346
:10042000254A26A10090224805F078FB01F0F6FD50
:100430000AA803F0BCFB0BB000BD000000000240A6
:10044000303132333435363738390900616263640C
:100450006566676869660900D70400080004024001
:1004600024050020DC09002024040020AB02000841
:100470005461736B300000006C030020DC05002029
:10048000050200085461736B31000000940A0020DB
:10049000EB0100085461736B320000004C0F002028
:1004A000D10100085461736B33000000940E0020EA
:1004B000740100202C020020230300085461736B98
:1004C000205374617274000010B500F03EFCFFF719
:1004D0008FFF002010BD38B504466A460021204633
:1004E00006F09CFC38BD30B587B0002500240DE037
:1004F000694601A801F015F89DF80400BDF8001048
:10050000484302A921F81400601CC4B20A2CEFDB96
:100510000A2102A800F048F9012405E002A830F8F9
:1005200014000544601CC4B2092CF7DBC5F3CF00EE
:100530000090BDF8000007B030BD70B58AB000264D
:1005400000240DE001F0DAFC40F6E441484340F6B7
:10055000FF7190FBF1F080B22DF81400601CC4B262
:10056000142CEFDB1421684600F01EF9012404E08E
:100570003DF814000644601CC4B2132CF8DB1220B2
:10058000B6FBF0F085B228460AB070BD01460129DD
:1005900001D12B2070472D20FCE701B59DF80010FC
:1005A0009DF801008DF800008DF80110BDF80000E5
:1005B00008BD01B59DF800109DF803008DF80000FE
:1005C0008DF803109DF801109DF802008DF80100D0
:1005D0008DF80210009808BD01B59DF800109DF837
:1005E00003008DF800008DF803109DF801109DF8B0
:1005F00002008DF801008DF80210009808BD014638
:10060000302905DB392903DCA1F13000C0B2704785
:10061000412905DB462903DCA1F13700C0B2F6E72A
:10062000FF20F4E70146092903DC01F13000C0B2E4
:1006300070470A2905DB0F2903DC01F13700C0B23E
:10064000F6E7FF20F4E770B504460B46164604B9FA
:1006500070BD03B9FCE7002222E0A05CFFF7CFFFEA
:100660000546FF2D00D1F3E703EB6200057003EBB5
:10067000620000780007000E03EB62010870511C55
:10068000605CFFF7BCFF0546FF2D00D1E0E703EB00
:1006900062000078284403EB62010870901C82B26B
:1006A000B242DADB00BFD3E730B504460B4615464D
:1006B00003B930BD04B9FCE700221BE0A15C0811BE
:1006C000FFF7B0FF03F81200985CFF2800D1F0E7B5
:1006D000A15C01F00F00FFF7A5FF012101EB420132
:1006E0005854012000EB4200185CFF2800D1E0E7DD
:1006F000501C82B2AA42E1DB00BFDAE7FE4909687A
:100700000160FD49091D09684160FB49083109681C
:1007100081607047F84909880180F749891C098878
:100720004180F549091D09888180F349891D09889F
:10073000C180F149083109880181EF490A310988EE
:10074000418170470EB50021009101910291EA4963
:1007500009680091E849091D09680191E6490831D5
:10076000096802910099090E01700099090C417005
:100770000099090A81700099C1700199090E0171EF
:100780000199090C41710199090A81710199C1719D
:100790000299090E01720299090C41720299090A23
:1007A00081720299C1720EBD2DE9F04105460E46D7
:1007B000002700241FE0002418E035F81410601C06
:1007C00035F81000814210DD35F814000AF038FDCC
:1007D0008046601C35F8100025F8140040460AF0E9
:1007E000F7FC81B2601C25F81010641CF01B401E41
:1007F000A042E2D87F1C701EB842DCD8BDE8F08170
:100800000146002002E0421CD0B2491011F0010F55
:10081000F9D170472DE9F04F8BB004468846282166
:1008200001A809F0CAFF00262EE04FF000090025BC
:1008300023E04FF07E5A002710E0AF420CD004F1C5
:100840002C0252F8271052F825000AF0D9FD8346F1
:1008500051460AF009FD8246781CC7B2B742ECDD6A
:10086000211D51F8250051460AF0F0FB8346494608
:100870000AF08AFB8146681CC5B2B542D9DD01A8E1
:1008800040F82690701CC6B24645CEDB282201A94E
:10089000201D09F060FF0BB0BDE8F08F2DE9F05F7F
:1008A00080460C461746D4F8049001251BE0201D15
:1008B00050F825A000260DE004F12C0050F8261079
:1008C00040460AF09DFD834651460AF0CDFC824623
:1008D000701CC6B2AE42EFDB514648460AF054FBEC
:1008E0008146681CC5B2BD42E1DB4846BDE8F09FC9
:1008F0002DE9FF5F04460D4692469B460126B14610
:100900002868206000BF1FE058460AF011FB074628
:100910008846A9F1010254F8221055F826000AF081
:100920006FFD01900AF004FB21F000413A46434676
:10093000CDE902010AF0D8F805D855F8260044F8A8
:10094000290009F10109761C5645DDDB484604B053
:10095000BDE8F09F10B502460B46012102E001EB15
:10096000810041001800A3F10104E3B2F7D101FBBB
:1009700002F010BD30B502460B46002100200BE00E
:10098000545C00EB800504EB4504A4F130004C1CE2
:10099000E1B2994200DB30BDF2E72DE9F04F87B0BC
:1009A00006460F469046A8F1010000F0FF094FF0FF
:1009B000000A00210C460D462CE016F80910A1F1A2
:1009C00030000AF025FC4D4901900AF04DFC8346A9
:1009D0000AF0AEFA4FF02042494BCDE9040120461F
:1009E00029460AF0BDF8CDE90201DDE9042309F04A
:1009F00087FF04460D46A9F1010000F0FF090AF146
:100A0000010000F0FF0ABA4504DB2046294607B082
:100A1000BDE8F08FD1E7002109B101207047002027
:100A2000FCE77047C10441EA50307047C10C41EA0D
:100A30004030704710B50B46002105E04C1C50F8C3
:100A4000244040F82140491C5C1E8C42F6D840F8F6
:100A5000242010BD10B50346986801609868001DF9
:100A60009860D3E90140A04201D9186898601869DC
:100A7000904202D21869401C1861186910BD0246E4
:100A8000086990B18868001F88600B688868984280
:100A900001D2486888608868C860C86800681060CB
:100AA0000869401E0861012070470020FCE730B54E
:100AB00004460D461348007802280BDA032221462B
:100AC0001148FFF7C7FF0F480078401C0D49087018
:100AD000002030BD032221460B48FFF7BBFF0B4827
:100AE00040680A490968884217D908484068074998
:100AF0008968884211D90BE0E8F7FF1FCDCCCC3DC7
:100B00009999B93F580000205C0000204C1000204B
:100B10003748406828600120DBE70020D9E7F0B5BE
:100B2000054600240026002711B10BB102B10DB912
:100B30003046F0BD2C46164613E0207896F800C0EB
:100B4000604506D0491E164657B1581E241A002784
:100B500006E07F1C9F4202D3581E201AE9E7761C4C
:100B6000641C0029E9D100263046E2E702460B4624
:100B700000210AB90020704703E0491C994200D3C4
:100B800002E0505C0028F8D100BF0846F3E7F0B55A
:100B900003460D461646002729460A2E03D000209C
:100BA00008702846F0BD33B9302001F8010B002051
:100BB00008702846F6E7002B03DA2D2001F8010B18
:100BC0005B4242F210720DE0B3FBF2F404B937B1AC
:100BD00004F1300001F8010B04FB123301270A2055
:100BE000B2FBF0F2002AEFD1002008702846D9E7C6
:100BF0004C1000201FB5684607F082FB019804B036
:100C000010BD70B5FFF7F6FF04465E480068B4FB00
:100C1000F0F5284602F069FC70BD1CB501210846BC
:100C200007F012FC00208DF805004FF48060009062
:100C300001208DF8040000208DF806008DF80700D3
:100C40006946514807F024F91CBD00B587B0012161
:100C5000084607F0F9FB0121880307F006FC07228C
:100C60000921494807F09DF902208DF8080003206A
:100C70008DF8090000208DF80A0001208DF80B0086
:100C80004002019001A9404807F002F94FF4E13019
:100C900003900020ADF81000ADF81200ADF814007C
:100CA000ADF818000820ADF8160003A9374809F080
:100CB0007AFB0121354809F0FBFB07B000BD1FB5E9
:100CC0004FF4E13000900020ADF80400ADF80600CC
:100CD000ADF80800ADF80C000820ADF80A000121BD
:100CE000C00207F0C2FB6946284809F05CFB0121FD
:100CF000264809F0DDFB1FBD10B5044621462348F8
:100D000009F001FC00BF8021204809F0ACFC00285C
:100D1000F9D010BD2DE9F04105460E46002400270C
:100D200000BF0EE0295D194809F0EDFB00BF8021EE
:100D3000164809F098FC18B9781C80B20700F6D163
:100D4000641CB442EED3BDE8F08110B501F03EFC66
:100D500001F0DEF8FFF761FFFFF777FF00F003FB1C
:100D600000F0BBFA00F0E7FF01F00DF94FF48061ED
:100D7000074807F009F94FF40061054807F004F946
:100D800010BD0000E0B6000800000240003801403D
:100D900000040240052000BF0100A0F10102D0B212
:100DA000FAD170471CB50121022007F04DFB8020CD
:100DB000009001208DF804008DF8060002208DF8C7
:100DC000050001208DF807006946FE4807F060F82D
:100DD0004020009001208DF804008DF806000220CC
:100DE0008DF8050001208DF807006946F54807F0E9
:100DF0004FF82020009001208DF8040000208DF88D
:100E0000060002208DF8050001208DF807006946D4
:100E1000EC4807F03DF84021EA4807F0B3F880219C
:100E2000E84807F0AFF82021E64807F0ABF81CBD12
:100E30001CB58020009001208DF804008DF806007C
:100E400002208DF8050001208DF807006946DD4875
:100E500007F01EF88021DB4807F094F84021D948BC
:100E600007F090F8012000F045FA8021D54807F0FE
:100E70008BF8012000F03EFA4021D24807F084F8B8
:100E80001CBD1CB58020009001208DF804008DF859
:100E9000060002208DF8050001208DF80700694644
:100EA000C84806F0F5FF8021C64807F06DF84021DC
:100EB000C44807F067F8012000F01CFA8021C148FF
:100EC00007F060F8012000F015FA4021BD4807F056
:100ED0005BF81CBD10B58021BA4807F055F8012019
:100EE00000F008FA4021B74807F04CF8012000F064
:100EF00001FA4021B34807F047F8012000F0FAF961
:100F000010BD10B58021AF4807F03CF8012000F07B
:100F1000F1F94021AB4807F035F8012000F0EAF97B
:100F20004021A84807F030F8012000F0E3F910BD97
:100F30001CB501248021A34807F024F8012000F00B
:100F4000D9F940219F4807F01DF8012000F0D2F99F
:100F50008020009000208DF8040002208DF805000C
:100F600001208DF807006946964806F091FF802120
:100F7000944806F0EFFF012800D100244021914859
:100F800007F002F88020009001208DF804008DF811
:100F9000060002208DF8050001208DF80700694643
:100FA000884806F075FFFFF7F5FE20461CBD7CB5AE
:100FB00000248021834806F0E5FF80200090002077
:100FC0008DF8040002208DF8050001208DF807003F
:100FD00069467C4806F05CFF002518E06006040EB8
:100FE0004021784806F0D0FF012000F083F940212D
:100FF000744806F0C7FFFFF7CDFE8021714806F068
:10100000A9FF0443012000F075F9681CC5B2082D42
:10101000E4DB40216B4806F0B7FFFFF7BBFE802002
:10102000009001208DF804008DF8060002208DF854
:10103000050001208DF807006946624806F028FF88
:1010400020467CBD70B50546002420E005FA04F07A
:1010500000F08000802804D180215A4806F092FFD9
:1010600003E08021574806F08FFFFFF793FE4021F1
:10107000544806F087FF012000F03CF94021514818
:1010800006F082FF012000F035F9601CC4B2082C84
:10109000DCDBFFF74DFF08B9002070BD0120FCE745
:1010A0002DE9F04104460E4617462021454806F03A
:1010B0006BFF002516E0FFF7BBFEA020FFF7C2FF85
:1010C0002012FFF7BFFFE0B2FFF7BCFF705DFFF734
:1010D000B9FFFFF7D6FE601C84B2032000F023F9AD
:1010E000681CC5B2BD42E6DB2021364806F04AFF47
:1010F000BDE8F0812DE9F04104460D461646402E2C
:1011000001DDBDE8F08120212E4806F03DFFFFF70C
:101110008FFEA020FFF796FF2012FFF793FFE0B2AB
:10112000FFF790FF002705E02878FFF78BFF6D1C85
:10113000781CC7B2B742F7DBFFF7A3FE2021214896
:1011400006F020FF00BFDCE72DE9F04104460E4623
:10115000174600251DE0FFF76BFEA020FFF772FF8A
:101160002012FFF76FFFE0B2FFF76CFFFFF760FEA2
:10117000A120FFF767FFFFF71AFF7055FFF7C1FEC9
:10118000FFF77FFE0A2000F0B5F8601C84B2681CEF
:1011900085B2BD42DFDBBDE8F0812DE9F0410546B7
:1011A0000C461646FFF744FEA020FFF74BFF28121F
:1011B000FFF748FFE8B2FFF745FFFFF739FEA12030
:1011C00002E0000000040240FFF73CFF002707E0B8
:1011D000FFF7EDFE2070FFF77DFE641C781CC7B2A0
:1011E000701EB842F4DCFFF7E2FE2070FFF789FEC4
:1011F000FFF747FEBDE8F0811CB50121084607F066
:1012000023F90520009000208DF804008DF80700D8
:101210006946374806F03CFE1CBD70B505460C46D5
:101220000421334806F096FE40B92046A847042121
:101230002F4806F08FFE08B9002070BD0120FCE7A2
:1012400010B50121084607F010F910BD1CB50021AA
:10125000084608F01CFA012006F0B2FD01200090BB
:1012600000208DF8040008208DF8050001208DF87D
:101270000600684606F02DFD1CBD08B54FF4A060C1
:1012800006F00CFA06208DF8000000208DF8010011
:101290008DF8020001208DF80300684606F003FA7D
:1012A00008BD10B5FFF7CCFFFFF7D0FFFFF7E5FF54
:1012B00010BD10B5012006F072FD68B1012006F0E6
:1012C00037FF30B1012006F03DFFFFF79AFCFFF732
:1012D000F6FC012006F074FD10BD10B5FFF7E1FF2C
:1012E0000121002006F0AAFEFFF786FF10BD0000D6
:1012F0000000024070B50546ACB22B4804600121E5
:101300002948243808F0EEFB02E02748006884B240
:10131000012CFADC24482438008840F001002249DE
:101320002439088070BD70B5054605EB4500C0EB5B
:10133000C5104FF6FF7101EAC0041B48046001218B
:101340001948243808F0CEFB02E01748006884B240
:10135000012CFADC14482438008840F001001249BE
:101360002439088070BD0EB50121042007F08EF8E5
:101370000020ADF808004820ADF800001020ADF8BE
:1013800002000120019069460748243808F030FB2C
:10139000002201210448243808F0B7FE0021024849
:1013A000243808F09FFB0EBD240800401CB54FF404
:1013B0000070009001208DF804008DF806000220D6
:1013C0008DF8050001208DF8070069468B4806F06E
:1013D0005FFD1CBD1CB54FF40070009000208DF81F
:1013E000040002208DF8050001208DF807006946F1
:1013F000824806F04DFD1CBD10B5FFF7D7FF4FF436
:1014000000717E4806F0BEFD1420FFF773FF4FF415
:1014100000717A4806F0B8FD4FF4FA70FFF76AFFE2
:1014200010BD10B5FFF7D6FF00BF4FF40071734831
:1014300006F090FD0028F8D100BF4FF400716F480E
:1014400006F088FD0028F8D03220FFF753FFFFF7A1
:10145000ADFF10BD70B50446FFF7A8FF002526E0DC
:1014600014F0010F10D04FF40071644806F08CFDA9
:101470000120FFF73FFF4FF40071604806F082FD46
:101480003C20FFF737FF0FE04FF400715B4806F098
:101490007BFD3C20FFF72EFF4FF40071574806F00C
:1014A00071FD0520FFF726FF6410681CC5B2082DEA
:1014B000D6DB70BD70B5002400251CE0FFF776FF79
:1014C00064104FF400714D4806F05EFD0220FFF7F6
:1014D00011FFFFF77FFF0120FFF70CFF4FF40071B2
:1014E000464806F037FD08B144F080040A20FFF7B3
:1014F00001FF681CC5B2082DE0DBFFF757FF20464F
:1015000070BD10B53E48007830B90121022006F0C8
:101510009BFF01203A490870FFF76EFFFFF781FF3C
:1015200010BD2DE9F84F0446894600200090824600
:10153000FFF7E7FF3320FFF78DFFFFF7E2FFCC2037
:10154000FFF788FF4420FFF785FF6420FFF7EBFEDD
:10155000FFF7D7FFCC20FFF77DFF0A20FFF7CAFE79
:10156000BE20FFF777FFFFF7A5FF0090FFF7A2FF70
:101570008246FFF741FF009840EA0A2B1AF0F00F6D
:1015800007D0002020706FEA0B00401C1FFA80FB80
:1015900001E001202070584609F093FA0746002226
:1015A000184B09F0DDFA054609F05EFAA9F80000CB
:1015B000BDE8F88F70B506460C461546FFF7A1FF4B
:1015C000CC20FFF747FF4E20FFF744FF3046FFF7E0
:1015D00041FF2046FFF73EFF2846FFF73BFF642010
:1015E000FFF7A1FEFFF78DFFCC20FFF733FF482068
:1015F000FFF730FF6420FFF796FE70BD0004024045
:10160000700000200000194010B50121022006F0F2
:101610002CFF10BD1CB54FF4005006F0D1FB4FF469
:101620000050009000208DF804000C208DF805007B
:1016300001208DF80600684606F04BFB1CBD08B57E
:101640004FF4A06006F02AF828208DF80000012051
:101650008DF8010000208DF8020001208DF80300B4
:10166000684606F020F808BD10B5FFF7CDFFFFF77C
:10167000D1FFFFF7E4FF10BD10B588B00446FE4867
:10168000844229D10121084606F0DEFE012108032B
:1016900006F0EBFEE020069002208DF81C000320EF
:1016A0008DF81D0000208DF81E0001208DF81F0010
:1016B00006A9F24806F0ECFB05221146EF4806F0B9
:1016C00070FC05220621ED4806F06BFC052207217F
:1016D000EA4806F066FC2BE0E948844228D1012163
:1016E000022006F0C2FE0121880306F0CFFEA00012
:1016F000069002208DF81C0003208DF81D000020AC
:101700008DF81E0001208DF81F0006A9DD4806F0A7
:10171000BFFB05220D21D94806F043FC05220E210E
:10172000D64806F03EFC05220F21D44806F039FCCD
:101730001020ADF810000020ADF804004FF48270C6
:10174000ADF806000020ADF80800ADF80A00ADF8CD
:101750000C004FF40070ADF80E000020ADF8120040
:101760000720ADF8140001A9204607F007FE01216B
:10177000204607F0A1FE08B010BD70B504460D4626
:1017800000BF0221204607F01BFF0028F9D02946A0
:10179000204607F0DEFE00BF0121204607F010FFC3
:1017A0000028F9D0204607F0D1FE70BD70B5044680
:1017B0000D4600BF0221204607F002FF0028F9D0A5
:1017C0002946204607F0C5FE00BF0121204607F04C
:1017D000F7FE0028F9D0204607F0B8FEC0B270BD71
:1017E00070B504460D464FF40041A64806F0CCFB08
:1017F0002146A148FFF7DAFF064629469E48FFF733
:10180000BCFF4FF400419F4806F0BCFB304670BD62
:1018100070B504464FF400419A4806F0B5FB2146E6
:101820009548FFF7AAFF00219348FFF7BFFF054641
:101830004FF40041934806F0A5FB284670BD2DE902
:10184000F04105460E4617464FF400418D4806F01C
:101850009BFB29468848FFF7A9FF8046002406E045
:1018600000218548FFF7A2FF3055601CC4B2BC427E
:10187000F6DB4FF40041834806F084FB4046BDE8A8
:10188000F0812DE9F04105460C4616464FF4004123
:101890007C4806F079FB29467748FFF787FF8046AA
:1018A000002706E014F8011B7348FFF766FF781C59
:1018B000C7B2B742F6DB4FF40041724806F062FB54
:1018C0004046BDE8F08170B5044600264FF48041E3
:1018D0006C4806F059FB07216748FFF767FF05468C
:1018E00015F0400F05D0202221466120FFF7A7FF09
:1018F000012629462720FFF773FF4FF480416148F6
:1019000006F040FB304670BD10B504464FF48041F0
:101910005C4806F039FB05225B492A20FFF7B1FF3E
:1019200020222146A020FFF7ACFF0E212020FFF748
:1019300057FF4FF48041534806F024FB10BD10B50B
:101940004FF480414F4806F01FFB05224F492A20E3
:10195000FFF797FF20213120FFF742FF3F21212091
:10196000FFF73EFF3F212220FFF73AFF28212520E5
:10197000FFF736FF07212620FFF732FF0F21202037
:10198000FFF72EFF4FF480413E4806F0FBFA10BDF2
:101990001CB50121022006F057FDFFF765FE4FF44C
:1019A0008040009001208DF8040000208DF8060092
:1019B00001208DF8070003208DF8050069463148A5
:1019C00006F066FA4FF40040009001208DF8040004
:1019D00000208DF8060001208DF8070003208DF807
:1019E00005006946274806F053FA2348FFF744FEEE
:1019F0001CBD10B50E212020FFF7F2FE3F21212053
:101A0000FFF7EEFE3F212220FFF7EAFE28212520E6
:101A1000FFF7E6FE0F212620FFF7E2FE10BD10B50E
:101A200004464FF48041174806F0AEFA05221649E5
:101A30003020FFF726FF052213492A20FFF721FF58
:101A400020222146A020FFF71CFF3F212120FFF785
:101A5000C7FE3F212220FFF7C3FE0A212420FFF703
:101A6000BFFE28212520FFF7BBFE07212620FFF718
:101A7000B7FE202131200BE0003001400000024081
:101A80000038004000040240710000207600002071
:101A9000FFF7A6FE0E212020FFF7A2FE4FF48041A3
:101AA0003C4806F06FFA0A20FFF724FC10BD70B521
:101AB000054600242846FFF7B2FF00BF4FF400514F
:101AC000344806F047FA0028F8D14FF480413148F5
:101AD00006F05AFA0720FFF79BFE044614F0200F89
:101AE00004D020212720FFF77BFE06E014F0100F22
:101AF00003D010212720FFF773FE4FF480412548C3
:101B000006F040FA0220FFF7F5FB4FF48041214830
:101B100006F03AFA70BD70B50446012500261E484D
:101B2000FFF7AAFDFFF70BFF00BF4FF40051194864
:101B300006F010FA18B1701C80B20600F5D14FF40F
:101B40008041144806F020FA0720FFF761FE0546A1
:101B500015F0400F11D0202221466120FFF76FFEC3
:101B60002078242805D140212720FFF739FE0120C5
:101B700070BD40212720FFF733FE4FF48041054818
:101B800006F000FA0020F3E710B54FF4005006F01D
:101B900017F910BD000402400030014008B50320D1
:101BA0008DF8000002208DF8010000208DF8020061
:101BB00001208DF80300684605F075FD08BD1CB5D1
:101BC0004FF4003006F0FCF84FF400300090002095
:101BD0008DF8040008208DF8050001208DF806001E
:101BE000684606F076F81CBD10B50121080706F01E
:101BF0004DFC012006F013FA012006F021FC002024
:101C000006F01EFC012006F031FB00BF412006F06B
:101C1000D3FA0028FAD04FF4003006F0EDFB012093
:101C200006F00AFC06F0E4FC10BD70B50546287805
:101C300000F5FA607749086068780871A8784871FB
:101C4000E87888712879C87168790872002640F2AE
:101C5000B27408E014F0030F02D16F48064401E0AB
:101C60006E480644641C6B480068A042F2D8012408
:101C70001DE014F0030F04D1022C02D16848064481
:101C800014E014F0030F04D0022C02D1654806447E
:101C90000CE0042C05D0062C03D0092C01D00B2C11
:101CA00002D16148064401E060480644641C59487A
:101CB0000079A042DDD857484079401E00EB400033
:101CC000C000C0EB4011C1EB002006EB00105149F1
:101CD0008979C1EB4112C2EB012100EB01104D49A2
:101CE000C979C1EB011100EB81004A49097A461814
:101CF000484880794E4908704648C0794870454840
:101D0000007A8870434800784A49C8704148007991
:101D1000487040484079887000BF4549002006F06F
:101D2000C9FD0028F9D000BF4249002006F060FE3E
:101D30000028F9D070BD10B5002007F017FAA0F503
:101D40004851F23919D0FFF74FFF3B4800683B4933
:101D500048603B48006888600020086000BF374842
:101D600006F00DFD0028FAD03648FFF75EFF43F27B
:101D7000F221002007F0EDF914E000BF5B2006F02F
:101D80001BFA0028FAD000BF5A2006F015FA0028E6
:101D9000FAD00121080706F079FB012006F03FF98F
:101DA00006F026FC10BD704770473EB5044620493A
:101DB000002006F0E9FD1F49002006F07FFE1D48C7
:101DC000C07800901B4840788DF80400194880784E
:101DD0008DF80500164800788DF806001448407804
:101DE0008DF80700124880788DF808009DE80700FC
:101DF00084E807003EBD10B54FF4805007F061FA4B
:101E000038B14FF4805007F07EFA4FF4003005F0FF
:101E1000D7FF10BD741000200085E2018033E1017E
:101E2000803B260000EA2400008D270080DE280089
:101E30008E000020920000207C000020581000201E
:101E4000800000208800002000B589B0012006F045
:101E500003FA0121022006F0F7FA01200190032085
:101E60008DF8080000208DF80B0001A9264806F027
:101E70000FF800BF212006F09FF90028FAD00121B9
:101E8000480206F0F2FA03A805F0ADFC002003902A
:101E90008DF8100001208DF81100002005900790AA
:101EA00001208DF8200003A9184805F077FC0623CF
:101EB00001220821154805F0FAFC1021134805F00D
:101EC000CCFC01224FF44031104805F0BDFC01214B
:101ED0000E4805F0A3FC00BF40210C4805F0C6FEEB
:101EE0000028F9D0094805F08EFD00BF02210748FF
:101EF00005F0BCFE0028F9D009B000BD10B50348BC
:101F000005F0BDFD10BD00000004024000240140AA
:101F10001CB5684606F004F86946374805F0B8FF76
:101F20006946364805F0B4FF6946354805F0B0FF0C
:101F30000021072006F088FA0121022006F084FA29
:101F400001208DF80500C002009001208DF80400EA
:101F500000208DF806008DF807006946274805F037
:101F600097FF01208DF805008002009001208DF878
:101F7000040000208DF806008DF8070069461F4810
:101F800005F086FF1CBD1CB50121022006F05CFA9D
:101F90008020009003208DF8040000208DF80600BA
:101FA0008DF8050001208DF807006946134805F0FB
:101FB0006FFF4020009003208DF8040000208DF872
:101FC00006008DF8050001208DF8070069460B48D2
:101FD00005F05EFF2020009003208DF80400002013
:101FE0008DF806008DF8050001208DF80700694680
:101FF000024805F04DFF1CBD0000024000040240F5
:102000000008024070477047704710B5012100205A
:1020100006F049F810BD70477047704710B50024AE
:1020200000BF00BF00F0D6FA044600BF00BFAFF209
:10203000150021490860AFF21F0020490860AFF287
:1020400029001F490860AFF23D001E490860AFF249
:1020500047001D490860AFF251001C490860AFF20B
:102060005B001B49086000BF00BF204600F0B6FAC5
:1020700000BF00BF10BD10B5002400BF00BF00F0BE
:10208000A9FA044600BF00BF00200B4908600B49B5
:1020900008600B4908600B4908600B4908600B4950
:1020A00008600B49086000BF00BF204600F096FAA8
:1020B00000BF00BF10BD7047C4000020C800002052
:1020C000CC000020D0000020D4000020D800002048
:1020D000DC0000200948804709480047FEE7FEE78A
:1020E000FEE7FEE7FEE7FEE7FEE7FEE7FEE7FEE7C8
:1020F00004480549054A064B7047000013220008B2
:10210000F500000830270020302D00203029002065
:10211000302900200CB5002001900090864800680E
:1021200040F480308449086000BF8348006800F4B0
:10213000003000900198401C0190009818B9019857
:10214000B0F5A06FF1D17C48006810F4003F02D0D8
:102150000120009001E0002000900098012857D154
:102160007648006840F0040074490860084600683A
:1021700040F0020008600846006840F00100086076
:102180006D482430006840F080506B49243108606D
:10219000C8146B49086000BF6948406810F0100F10
:1021A000FAD165480830006863490831086008467C
:1021B000006808600846006808600846006820F467
:1021C0007D0008600846006840F4110008605A4825
:1021D000006840F080705849086000BF56480068A9
:1021E00010F0007FFAD054480830006820F0030057
:1021F0005149083108600846006840F00300086053
:1022000000BF4D480830006800F00C000C28F8D1E1
:102210000CBD10B54848006840F48070464908601D
:10222000454808300068474908404349083108607C
:1022300041480068444908403F4908600846006832
:1022400020F4802008603C480830006820F47D00BD
:102250003949083108600020091D0860FFF75AFF5E
:102260004FF000603949086010BD70B500220020B1
:10227000002100240023304D08352D6805F00C02A4
:1022800032B1042A10D0082A12D00C2A39D113E016
:10229000294D2D1D2D68C5F342335D1C0126AE402E
:1022A000F5032B4E356038E02A4D294E356034E079
:1022B000294D274E356030E01F4D08352D6805F457
:1022C00070101D4D08352D6805F44001234D05EBB8
:1022D00090452878012505EB9151174D08352D685B
:1022E00005F4803434B91B4D4543B5FBF1F5184E68
:1022F000356005E0184D4543B5FBF1F5144E3560EA
:102300000BE00D4D2D1D2D68C5F342335D1C0126DC
:10231000AE40F5030E4E356000BF00BF064D0835D8
:102320002D68C5F303150E4E725D094D2D68D5401D
:10233000074E356070BD000000380240003C02408E
:10234000007000400CC0FF88FEFFFEEE08ED00E0CC
:10235000980000200024F40000127A009C00002065
:10236000A500002010B5002400BF00BF00F032F926
:10237000044600BF00BF1021924800F09EFA00BF43
:1023800000BF204600F02AF900BF00BF10BD10B505
:10239000FFF7E8FF10BD10B5FFF7F9FF10BD00BF54
:1023A000FEE770B505460C46002614B900BFFFF7DE
:1023B000F6FF15B90A20208070BD00BF00BF00F0F5
:1023C00009F9064600BF00BF10227E49284600F0EA
:1023D00039FB00BF00BF304600F000F900BF00BF6E
:1023E0000020208000BFE7E72DE9F04105460C46BC
:1023F000002714B900BFFFF7D2FF1DB90A202080C3
:10240000BDE8F0811021284600F004FB0646102E9E
:1024100015D200BF00BF00F0DDF8074600BF00BFC7
:1024200010222946674800F00DFB00BF00BF384668
:1024300000F0D4F800BF00BF0020208002E04FF47D
:102440007A70208000BFDBE770B50546284600F0B3
:10245000CCF80446183C204670BD70B505462846A9
:1024600000F0C3F80446103C204670BD70B5054628
:10247000284600F0BAF8044600BF204670BD30B5CB
:1024800002460B464FF0FF354FF00004AD1A9C4159
:1024900027D24FF0FF352C0CAD1A9C410FD24FF0D4
:1024A000FF352C0AAD1A9C4103D2190E464C605CD4
:1024B00045E0190C444C645C04F108003FE04FF027
:1024C000FF35FF24AD1A9C4105D2190A3E4C645CCD
:1024D00004F1100033E019463B4C645C04F1180031
:1024E0002DE04FF6FF750024AD1A9C4115D26FF018
:1024F0007F450024AD1A9C4107D2140E44EA032103
:10250000314C645C04F1200019E0140C44EA0341EE
:102510002D4C645C04F1280011E0FF250024AD1A65
:102520009C4107D2140A44EA0361274C645C04F11D
:10253000300004E01146244C645C04F1380030BDE6
:1025400070B504460CB9082070BD204600F050F864
:1025500005462846F8E770B504460CB9102070BD52
:10256000204600F045F805462846F8E770B50446D1
:102570000CB9202070BD204600F03AF805462846E8
:10258000F8E72DE9F04304460D464FF0000184EAD8
:10259000010085EA0101084302D14020BDE8F08333
:1025A000E243E843521C40F1000102EA040601EA5A
:1025B000050730463946FFF762FF8046C8F13F09FC
:1025C0004846EBE780100020EAB4000872B6704776
:1025D00062B67047EFF3108072B6704780F31088D0
:1025E000704730BF704720BF7047B0FA80F0704727
:1025F00090FAA0F0B0FA80F0704790FAA0F070471F
:102600000146412903DB5A2901DC012200E00022B6
:10261000012A08D0612903DB7A2901DC012200E0CC
:102620000022012A01D1012200E000221046704759
:102630000146412903DB5A2901DC012200E0002286
:10264000012A08D0612903DB7A2901DC012200E09C
:102650000022012A01D1012200E00022012A08D033
:10266000302903DB392901DC012200E00022012AA4
:1026700001D1012200E00022104670470146612985
:1026800003DB7A2901DC012200E0002210467047BA
:102690000146412903DB5A2901DC012200E0002226
:1026A000104670470146302903DB392901DC01223D
:1026B00000E00022104670470146302903DB37292D
:1026C00001DC012200E0002210467047014630295B
:1026D00001DB392907DD412901DB462903DD6129B9
:1026E00003DB662901DC012200E00022104670476E
:1026F0000146202901D0092901D1012200E0002250
:10270000104670470146202909D00D2907D00A2913
:1027100005D00C2903D0092901D00B2901D10122B0
:1027200000E00022104670470146202903DB7E2985
:1027300001DC012200E000221046704701462129F9
:1027400003DB7E2901DC012200E0002210467047F5
:102750000146202903DB7E2901DC012200E0002262
:10276000012A35D1202909D00D2907D00A2905D001
:102770000C2903D0092901D00B2901D1012200E045
:1027800000222ABB412903DB5A2901DC012200E097
:102790000022012A08D0612903DB7A2901DC012209
:1027A00000E00022012A01D1012200E00022012ADA
:1027B00008D0302903DB392901DC012200E00022A6
:1027C000012A01D1012200E000220AB9012200E021
:1027D00000221046704701464AB2002A01DB1F2939
:1027E00001DD7F2901D1012200E00022104670475F
:1027F0000146412903DB5A2901DC012200E00022C5
:10280000012A02D101F1200200E00A46D0B270474D
:102810000146612903DB7A2901DC012200E0002264
:10282000012A02D1A1F1200200E00A46D0B270478D
:10283000F0B504460B462046FFF7EAFF054618466A
:10284000FFF7E6FF0646B54201D1012000E0002077
:1028500007463846F0BD70472DE9F04103460C4667
:1028600017460FB9BDE8F08103B9FBE70025002248
:1028700002E02D022543521C042AFAD3384603F005
:10288000030C1946BCF1000F08D0624603E001F8C2
:10289000014B401E521C08B1042AF8D30E4601E039
:1028A00020C6001F0428FBD2314602E001F8014B8C
:1028B000401E0028FAD100BFD4E730B505460C46CB
:1028C000224600212846FFF7C7FF30BD2DE9F04F13
:1028D00003460C469446BCF1000F01D1BDE8F08FD1
:1028E00003B9FBE704B9F9E760461946224601F04F
:1028F000030702F003094F4502D14FF0010B01E03D
:102900004FF0000BDA46BAF1010F19D167B1B846A2
:1029100006E012F801BB01F801BB401E08F10108F6
:1029200010B1B8F1040FF4D30D46164604E056F882
:1029300004BB45F804BB001F0428F8D229463246E0
:1029400004E012F801BB01F801BB401E0028F8D1D9
:1029500000BFC3E72DE9F84F80468946154615B9F3
:102960000120BDE8F88FB8F1000F01D10020F8E791
:10297000B9F1000F01D10020F3E70124294608EB4B
:10298000050209EB050302F0030C03F0030BDC4521
:1029900001D1012000E0002000900098012829D1F9
:1029A000BCF1000F12D0E2460AE0521E5B1E107806
:1029B00093F800E0704500D00024491EAAF1010AF6
:1029C000012C03D111B1BAF1000FEED1012C11D1BC
:1029D00016461F4608E0361F3F1F3068D7F800E054
:1029E000704500D00024091F012C01D10429F2D226
:1029F00032463B4608E0521E5B1E107893F800E01A
:102A0000704500D00024491E012C01D10029F2D1CB
:102A10002046A6E710B502460B461146002001E00D
:102A2000491C401C19B10C780CB19842F8D310BD68
:102A300030B504464FF0FF312046FFF7EBFF054667
:102A4000284630BD70B504460D4616460CB9002028
:102A500070BD0DB90020FBE721462A46002304E0A3
:102A600010780870491C521C5B1C21B11AB11078F7
:102A700008B1B342F4D301B10AB90020E8E7B34288
:102A800001D2002008702046E2E770B504460D46EA
:102A90004FF0FF3229462046FFF7D4FF0646304666
:102AA00070BD70B503460C4615460BB9002070BDCD
:102AB0000CB90020FBE70DB91846F8E7194600E00D
:102AC000491C11B108780028FAD109B90020EEE7B5
:102AD0002246002604E010780870491C521C761C1F
:102AE00021B11AB1107808B1AE42F4D301B10AB9DC
:102AF0000020DCE7002008701846D8E770B50446CF
:102B00000D464FF0FF3229462046FFF7CAFF064622
:102B1000304670BD2DE9F04305460B469446BCF1A6
:102B2000000F02D10020BDE8F08335B90BB90020B9
:102B3000F9E7187842421046F5E713B92A781046AB
:102B4000F1E729461C460F4626467F1C761C4FF0AF
:102B5000000805E0491C641C7F1C761C08F1010874
:102B6000087894F80090484505D1087818B117B155
:102B70000EB1E045EED3E04501D10020D3E708785F
:102B800094F80090484505D0087894F80090A0EBA0
:102B900009020BE0087808B9002207E02FB90EB946
:102BA000002203E03078424200E03A781046BAE76B
:102BB00070B504460D464FF0FF3229462046FFF718
:102BC000A9FF0646304670BD2DE9F74F82B080461A
:102BD0000E46049818B9002005B0BDE8F08FB8F192
:102BE000000F09D10EB90020F6E73078FFF700FE9C
:102BF00007467C422046EFE73EB998F80000FFF711
:102C0000F7FD05462C462046E6E7C146B246C846D3
:102C1000C3465646CDF804A0D8460BF1010B019EE1
:102C2000701C0190C84699F80000FFF7E1FD0546C9
:102C300056469AF80000FFF7DBFD0746002000909B
:102C400015E009F101090AF1010A0BF1010B0198E4
:102C5000401C01900098401C009099F80000FFF77C
:102C6000C7FD05469AF80000FFF7C2FD0746BD42C2
:102C70000BD199F8000040B1BBF1000F05D00198CD
:102C800018B1049900988842DBD3049900988842CF
:102C900001D10020A0E7BD4201D0EC1B16E00DB928
:102CA000002413E0BBF1000F0AD1019808B90024F9
:102CB0000CE001990878FFF79BFD07467C4205E090
:102CC0009BF80000FFF794FD05462C46204683E75D
:102CD00070B504460D464FF0FF3229462046FFF7F7
:102CE00073FF0646304670BD30B504460B461546A8
:102CF0000CB9002030BD0BB90020FBE721460022B3
:102D000001E0491C521C31B1087820B10878A84272
:102D100001D09A42F5D309B90020EBE79A4201D3DA
:102D20000020E7E70878A84201D00020E2E7084643
:102D3000E0E770B505460C4622464FF0FF312846C5
:102D4000FFF7D2FF0646304670BD2DE9F043054639
:102D50000E46174615B90020BDE8F0830EB90020D5
:102D6000FAE72C46A6F1010949462046FFF752FE34
:102D7000804644440CB90020EEE700E0641EAC42FB
:102D800002D02078B842F9D12078B84201D0002092
:102D9000E2E72046E0E770B505460C4622464FF0D4
:102DA000FF312846FFF7D1FF0646304670BD2DE9BA
:102DB000FF4F06460F4615461EB9002004B0BDE879
:102DC000F08F0FB90020F9E70DB90020F6E7681C75
:102DD00000D001E04FF0FF30039029463046FFF766
:102DE00019FE804638460399FFF714FE04460CB9D5
:102DF0003046E3E7444501D90020DFE706EB080B46
:102E0000BBF1000F01D10020D8E707EB040BBBF1A9
:102E1000000F01D10020D1E7A8EB040002904FF091
:102E200000090020019000BF06EB09000090224637
:102E300039460098FFF76EFE8246BAF1000F01D1C5
:102E4000012000E00020019009F10109019810B96A
:102E500002988145E8D9BAF1000F01D00020ADE712
:102E60000098ABE770B504460D464FF0FF32294697
:102E70002046FFF79CFF0646304670BD2DE9FF4F08
:102E80008DB00F4615461A9E0024A046A14600208C
:102E90000C900B900A908246099008908346079008
:102EA0000690059004900390029001901D9818B927
:102EB000002011B0BDE8F08F00200390012F01DA4F
:102EC00001200390022D01D3242D01D9012003906C
:102ED00096B33046FFF728FC02900298012802D0F2
:102EE0000120039028E0302E26D0A6F13000C0B299
:102EF00007901B98012804D0A6F14100C0B20690AB
:102F000003E0A6F16100C0B206900A2D02D807982E
:102F1000A84209DB0A2D09D907980A2804D3A5F18C
:102F20000A000699884201D9012000E0002005909E
:102F30000598012800D103901D9C0398002846D1D4
:102F4000DDF83490DDF83490CDF8309001200B900E
:102F500007E00B98401CC0B20B900C98B0FBF5F04A
:102F60000C900C98A842F4D21098012800D100E0EF
:102F70000020099009990B980844B84225DC0020EC
:102F800001900B98B84201DA0B9800E038460A909D
:102F90003EB1BA460A98391A0998081AC0B2089080
:102FA00006E0DDE90910084400F0FF0A002008905F
:102FB0000898002806DD302E01D1012000E0002015
:102FC000049004E00020049001E0012003900398A5
:102FD00000B1BA4654441C9808B100202070641E09
:102FE0004FF0000841E00398A8BBB9F1000F02D1EF
:102FF000B8F1000F1CD1B9FBF5F005FB109000F003
:10300000FF0BBBF10A0F04D20BF1300004F80109E9
:103010000BE01B98012804D00BF1370004F80109DC
:1030200003E00BF1570004F80109B9FBF5F91AE0C8
:103030001098012810D1049808B9019828B1049873
:1030400050B1AAF10100404506D12D2004F8010934
:103050000120019007E003E02EB104F8016902E0CD
:103060003F2004F8010908F10108D045BBD30398BB
:1030700008B100201DE71D981BE72DE9FF5F0546FD
:103080000E4617461C46DDE90F9ADDF8388000230E
:103090003A46314628468DE81007FFF7EFFE834693
:1030A000584604B0BDE8F09F2DE9FF4F85B00446B7
:1030B00089461F46DDE913AB002C02DA6542012682
:1030C00001E02546002612983346CDE902ABCDE952
:1030D000007049462846079AFFF7D0FE80464046D2
:1030E00009B0BDE8F08F2DE9FF4F8BB00646894649
:1030F0001546B9F1000F02D10DF1240900BFC9F83E
:103100000060189810B907A8189000BF00211898FF
:1031100001701EB900200FB0BDE8F08F012D01D065
:10312000242D01D90020F6E734462078FFF7EAFA8B
:10313000039004E0641C2078FFF7E4FA03900398FE
:103140000128F7D020782B2802D02D280BD103E0BE
:10315000641C4FF0000B09E00E98012800D1641C9C
:103160004FF0010B02E04FF0000B00BF00BF0A94CC
:1031700025B1082D1CD0102D36D11EE02078302826
:1031800014D1641C2078582802D078280BD100BFB5
:10319000102567783846FFF799FA8246BAF1010F91
:1031A00000D1641C01E0082500BF00E00A251CE0F6
:1031B0002078302800D1641C17E02078302812D104
:1031C000641C2078582802D078280AD100BF67787C
:1031D0003846FFF77BFA8246BAF1010F00D1641C32
:1031E00000E000BF00BF00E000BF00BF4FF00008DC
:1031F00000200290019040E027783846FFF718FA47
:1032000005900598012836D13846FFF74BFA06900D
:103210000698012804D1A7F13000C0B208900FE051
:103220003846FFF72BFA04900498012804D1A7F13F
:103230005700C0B2089003E0A7F13700C0B2089071
:103240000898A84214DA029880B9304850F825004E
:10325000404509D308FB05F8089880440898804544
:1032600004D20120029001E001200290641C04E0DD
:103270000120019001E00120019001980028BBD0BD
:103280000298012801D14FF0FF380A98844202D0F9
:10329000C9F8004001E0C9F80060189880F800B053
:1032A000404638E7F8B504460D461646002003466A
:1032B0003246294600902046FFF715FF074638465C
:1032C000F8BD2DE9FC4105460E46174601A801232D
:1032D0003A46314600902846FFF705FF04469DF820
:1032E000040040B9B4F1004F02D36FF0004000E099
:1032F0002046804607E0B4F1004F02D34FF0004073
:1033000000E0604280464046BDE8FC81ECB5000824
:1033100010B530BF8048006810B17F480068804712
:1033200010BD7E4A1168002002E0002204C1401C4A
:103330007B4A12689042F8D3784A1268784B1B682F
:1033400002EB8302121F774B1A60704710B5764864
:10335000006810B174480068804710BD10B504467D
:103360007248006818B1204670490968884710BD46
:1033700010B504466E48006818B120466C490968CB
:10338000884710BD10B504466A48006818B1204649
:1033900068490968884710BDF0B50446DDE905565F
:1033A00002EB85004FF0807C071F3846C7F800C04D
:1033B000071F38463C60DFF880C1071F3846C7F852
:1033C00000C04FF0123C071F3846C7F800C04FF04E
:1033D000033C071F3846C7F800C04FF0023C071FE8
:1033E0003846C7F800C0071F38463B60071F3846FD
:1033F00039604FF0113C071F3846C7F800C04FF046
:10340000103C071F3846C7F800C04FF0093C071FA3
:103410003846C7F800C04FF0083C071F3846C7F8C9
:1034200000C04FF0073C071F3846C7F800C04FF0F8
:10343000063C071F3846C7F800C04FF0053C071F81
:103440003846C7F800C04FF0043C071F3846C7F89D
:1034500000C0F0BD10B53948006810B137480068A9
:10346000804700243648006836490968884215D0EC
:1034700033480068D0F89000201A31490968C1F833
:103480008C002F480068D0F894002D490968D1F8C5
:103490008C1008442A490968C1F89400294800683A
:1034A000C0F8904010BD10B52748006810B12648FC
:1034B0000068804710BD10B5002400BF00BFFFF7B3
:1034C00089F8044600BF00BF20480078401C1F490F
:1034D000087000BF00BF2046FFF780F800BF00BFA4
:1034E00003F09FFD00F07DF910BD01464A1E4FF02C
:1034F000E0235A61164A106820F07F4000BF106038
:103500001A46126942F005021A611A46126942F01F
:1035100002021A6170470000D0000020ACB600081B
:10352000B0B60008B8000020D4000020C40000207D
:10353000C8000020CC0000206D690008D8000020E1
:103540005001002054010020DC000020E400002095
:1035500020ED00E01148124812481348134814485F
:10356000144815481548164816481748174818486B
:103570001848194819481A481A481B481B481C483B
:103580001C481D481D481E481E481F481F4820480B
:10359000204821482148224800BF704720B7000832
:1035A00080B6000884B6000888B600088CB600080B
:1035B000ACB60008B0B60008B4B60008B8B600084B
:1035C000BCB60008C0B60008C4B60008C8B60008FB
:1035D000CCB60008D0B60008D4B60008D8B60008AB
:1035E000DCB60008E0B60008E4B60008E8B600085B
:1035F000ECB60008F0B60008F4B60008F8B600080B
:10360000FCB6000800B7000804B7000808B70008B7
:103610000CB7000810B7000814B7000818B7000866
:103620001CB70008002400BF19E000BF00BFFEF770
:10363000D1FF044600BF00BFF7480068401CF649B0
:103640000860F6480068401CF449086000BF00BFED
:103650002046FEF7C3FF00BF00BFFFF759FEE4E7B7
:1036600010B58AB004460020EB4908600B20002109
:103670000591CDE9070406910846E9490968E94A38
:103680001268E94B1B68CDE90132CDE903103F20F8
:103690000023AFF26F02E5A10090E94802F03EFA84
:1036A0000AB010BD00210AE001EB4102E54B03EB3B
:1036B000820000220281026042604A1CD1B240298D
:1036C000F2D3704770B50446FFF72BFE0020DE49A9
:1036D0000870DE490870DE490870DE490860DE497E
:1036E0000860DE490870DE490870DE490870DE496E
:1036F0000870DE4800680A21B0FBF1F0DC49086080
:10370000DC48006858B1DC48056845B1D94806680E
:1037100003E0761E002028602D1D002EF9D1002028
:10372000D6490860D6490860D6490860D64908607D
:10373000D6490860D6490860D6490860D64908705D
:1037400001F0D4F9FFF7AEFF204600F0CEFE20884E
:1037500000B170BD204601F0BDF9208800B1F8E746
:10376000204601F0D5FB208800B1F2E7204601F0A9
:1037700009FE208800B1ECE7204603F0EEF820882F
:1037800000B1E6E72046FFF76BFF208800B1E0E7D5
:10379000204603F0FDF9208800B1DAE7204602F068
:1037A00067F8208800B1D4E7204603F0D6FE2088D1
:1037B00000B1CEE700F0BCFDFFF7CCFE00BFC8E7CC
:1037C000A2480078012800D070479F480078FA2866
:1037D00000DBF9E79C480078401C9B49087000BF5B
:1037E000F2E710B5002499480078012800D010BDF8
:1037F00000BFFEF7EFFE044600BF9348007828B9EB
:1038000000BF2046FEF7EAFE00BFF0E78E480078D2
:10381000401E8D49087008460078002805DD00BF6D
:103820002046FEF7DBFE00BFE1E78948007800286C
:1038300005DD00BF2046FEF7D1FE00BFD7E701F04F
:103840005FF9874908700846007800EB40007D4921
:1038500051F8200080490860084600687D490968E1
:10386000884205D100BF2046FEF7B8FE00BFBEE784
:1038700079480068D0F88800401C77490968C1F889
:10388000880086480068401C844908604FF08050DA
:103890008349086000BF2046FEF7A0FE00BF00BFBE
:1038A000A5E710B5002468480078002800DD10BDA9
:1038B00067480078002800DDF9E700BFFEF78AFEC0
:1038C000044600BF01F01CF96549087008460078FD
:1038D00000EB40005B4951F820005F490860084652
:1038E00000685C490968884205D100BF2046FEF7A0
:1038F00075FE00BFDBE758480068D0F88800401C20
:1039000055490968C1F8880064480068401C63494B
:1039100008604FF080506249086000BF2046FEF703
:103920005DFE00BF00BFC2E770B5044600254748F2
:103930000078012803D045F68960208070BD444896
:103940000078FA2803DB45F209202080F6E700BF63
:1039500000BFFEF73FFE054600BF00BF3C480078B1
:10396000401C3B49087000BF00BF2846FEF736FEEA
:1039700000BF00BF0020208000BFDFE770B5044615
:10398000002532480078012803D045F68960208060
:1039900070BD2F48007818B946F664502080F7E7CC
:1039A00000BF00BFFEF716FE054600BF00BF284857
:1039B0000078401E264908700846007800280ADD75
:1039C00000BF00BF2846FEF709FE00BF00BF46F655
:1039D00063502080DCE700BF00BF2846FEF7FEFDF5
:1039E00000BF00BFFFF75DFF0020208000BFCFE7D2
:1039F0002DE9F04105460C461646002700BF00BFE2
:103A0000FEF7E8FD074600BF00BF012D4AD00020A9
:103A10001549087049E00000E00000201001002076
:103A200088B6000884B6000880B6000875432F4F9A
:103A3000532D4949492049646C65205461736B00DA
:103A4000E0200020A4210020E4000020E500002068
:103A5000FA0000205001002054010020EE00002058
:103A6000EF000020F000002000010020E0B6000878
:103A7000FC000020B0B60008ACB60008C40000206E
:103A8000C8000020CC000020D0000020D40000207E
:103A9000D8000020DC0000202E010020240100209E
:103AA00004ED00E00120FC49087014B1FB480460FB
:103AB00006E0FB4800680A21B0FBF1F0F749086016
:103AC00000BF00BF3846FEF789FD00BF00BF0020E1
:103AD0003080BDE8F08110B501460C8924B1012C7D
:103AE00003D0022C0CD101E000BF14E008684A6842
:103AF00002610024C4601461D0600A6048600AE07A
:103B000008684A68C36800241C61C4600261D06010
:103B10000B60486000BF00BF10BD2DE9F0410446B6
:103B20000027E0480078002804DD46F66350208036
:103B3000BDE8F081D8480078012803D046F67B1014
:103B40002080F5E700BF00BFFEF744FD074600BF39
:103B500000BFD548007800EB4000D44901EB800657
:103B6000308902280ADA00BF00BF3846FEF736FD6A
:103B700000BF00BF46F67A102080D9E73046FFF735
:103B8000AAFF3568686D18B9C4480068A86501E0E7
:103B9000686DA86500BF00BF3846FEF71FFD00BF77
:103BA00000BFFFF77EFE0020208000BFC0E710B5F9
:103BB0000446BF480078E8B900F0A2FFBD4908708C
:103BC00008460078B8490870BA48007800EB400011
:103BD000B64951F82000B849086008460068B7495E
:103BE00008600120B249087006F048FE43F69920AB
:103BF000208002E045F68A60208010BD014600204A
:103C0000088047F25C60704730B548B14568C1F83C
:103C1000B45000F10804226893681D6AC56113E07E
:103C200091F83450022D02D0072D08D103E0A4A54D
:103C3000C1F8B45007E0A4A5C1F8B45003E0A5A5AD
:103C4000C1F8B45000BF00BF30BDF0B58E6896F823
:103C5000375007893FB90127078100274F600F6060
:103C60000160416023E007897F1C0781026806E04C
:103C7000946894F83770AF4200DD02E05268002A81
:103C8000F6D100BF32B900274F6043680B6059601E
:103C900041600CE017682FB9116000270F604A607F
:103CA000016004E013680B604A6059601160F0BD68
:103CB00010B5C287016300230AE000244C600C6049
:103CC0000C614C610C83CC61886020315C1CA3B218
:103CD0009342F2DB10BD2DE9F041054695F837001F
:103CE00000EB4000714901EB80042F69EE6887B951
:103CF00046B9002020812060606095F8370000F010
:103D000021FF0EE02089401E2081002030612660C6
:103D100007E02089401E2081FE600EB9676000E048
:103D2000376100202861E860BDE8F08138B50446BD
:103D30000D4685B16B4602222946204602F069FFF6
:103D4000BDF8000018B9032084F8360006E0022010
:103D500084F8360002E0022084F836002046FFF79F
:103D6000BAFF38BD2DE9F04105460C4616461F4600
:103D70005248006880F8346000205049096881F892
:103D8000350039464D480068FFF7D0FF6CB104F1AB
:103D90000808EC600122294648480068FFF788FFC0
:103DA00029464046FFF751FF06E0002043490968D5
:103DB000C887424909680863404801682046FFF700
:103DC00023FFBDE8F08110B50489012C03D1002444
:103DD0000460446011E00C6824B94A68002414604F
:103DE00002600AE04C6824B90B6800245C60436000
:103DF00003E00B684A685A6013600489641E0481FA
:103E000000244C600C6010BD2DE9F0410446256B88
:103E1000E68F0AE0D5F80C8008F1080729463846F5
:103E2000FFF7D1FF2035701E86B2002EF2DC002095
:103E3000E0872063BDE8F08130B50346086BCC8F86
:103E400008E0C5689D4202D10361C26104E02030F0
:103E5000651EACB2002CF4DC00BF30BD10B590F88C
:103E6000373003EB4303114C04EB83010B893BB95F
:103E700001230B810023C36003610860486009E0EF
:103E80000B895B1C0B810B68C360002303610A680C
:103E90001061086010BD000000010020FC0000203F
:103EA000E0B60008FA000020EE000020A421002067
:103EB000E5000020EF000020540100205001002008
:103EC0005461736B205100005461736B2053656D16
:103ED000000000002000000010B590F8373003EB20
:103EE0004303F74C04EB83010B893BB901230B819E
:103EF0000023C36003610860486008E00B895B1C15
:103F00000B810023C3604A680261D060486010BD25
:103F100010B5044694F8370000F004FE94F837001A
:103F2000E8490978884203D12046FFF7D5FF02E02F
:103F30002046FFF793FF10BD10B50446204602F05F
:103F40002DFD94F8360010F0040F02D12046FFF743
:103F5000DFFF10BD70B505460C46164694F83600D6
:103F600008284DD2DFE800F00405080906072A2BCF
:103F700000BF00BF00BF44E000BF94F83400032836
:103F800004D1324621462846FFF756FF0020E0655F
:103F9000A4F86000266415B12046FFF735FF2046DF
:103FA000FFF7CAFF002004F13404A0704FF00100B5
:103FB00060704FF0000004F8340922E000BF94F86C
:103FC0003400032804D1324621462846FFF734FF47
:103FD0000020E065A4F86000266415B12046FFF7D4
:103FE00013FF204602F0DAFC042004F13404A07030
:103FF0004FF0010060704FF0000004F8340900E059
:1040000000BF00BF70BD30B5AFF23815C1F8B45075
:1040100000F1080422681AB193681D6AC56102E0C4
:10402000AFF25015C56130BD2DE9F04304460F468F
:1040300084F83770256BB4F83E8013E0D5F80C9007
:1040400009F108063089012807D929463046FFF7CB
:10405000BAFE29463046FFF7F8FD2035A8F10100E9
:104060001FFA80F8B8F1000FE8D1BDE8F083002115
:10407000016041600181704703895B1C0381036813
:104080004B6000230B60026802B11160016003897C
:10409000012B00D14160704730B50346086BCC8FCF
:1040A00008E0C5689D4202D10361C26104E020308E
:1040B000651EACB2002CF4DC00BF30BD70B5064606
:1040C0000C46154694F8360008284BD2DFE800F07D
:1040D000040508090607292A00BF00BF00BF42E007
:1040E00000BF94F83400032804D12A462146304604
:1040F000FFF7D2FF0020E065A4F8600025642046A9
:10410000FFF782FE2046FFF717FF002004F134047A
:10411000A0704FF0020060704FF0000004F8340906
:1041200021E000BF94F83400032804D12A46214638
:104130003046FFF7B1FF0020E065A4F86000256479
:10414000204602F02BFC2046FFF75EFE042004F11F
:104150003404A0704FF0020060704FF0000004F8CB
:10416000340900E000BF00BF70BDF0B50446059EF5
:10417000086BCD8F0AE0C768A74204D10461426191
:104180000383C66104E020306F1EBDB2002DF2DC57
:1041900000BFF0BD2DE9F84306460C461746984689
:1041A000089D94F83600082853D2DFE800F0040593
:1041B000080906072C2D00BF00BF00BF4AE000BF62
:1041C00094F83400032807D143463A462146304646
:1041D0000095FFF7CAFF03E0E765A4F86080256457
:1041E00036B12046FFF710FE21463046FFF70BFFA1
:1041F0002046FFF7A1FE002004F13404A070607097
:1042000004F8340926E000BF94F83400032807D1ED
:1042100043463A46214630460095FFF7A6FF03E0A5
:10422000E765A4F860802564204602F0B7FB36B14C
:104230002046FFF7E9FD21463046FFF7E4FE042063
:1042400004F13404A0704FF00000607004F83409E9
:1042500000E000BF00BFBDE8F88370B5054600264A
:1042600019480078012800D070BD00BF00BFFEF7DC
:10427000B1F9064600BF00BF2C683CB900BF00BFC3
:104280003046FEF7ABF900BF00BFEDE70F488442B0
:1042900007D100BF00BF3046FEF7A0F900BF00BF46
:1042A000E2E7A06D10B1A06D401EA065A06D78B1D1
:1042B00000BF00BF3046FEF791F900BF00BFD3E753
:1042C000A4210020EE00002000010020E0200020BA
:1042D0002889022807DA00BF00BF3046FEF77EF9C2
:1042E00000BF00BFC0E710480078002807DD00BF0E
:1042F00000BF3046FEF772F900BF00BFB4E72846A2
:10430000FFF7E9FB2C68606D18B908480068A065E4
:1043100001E0606DA06500BF00BF3046FEF75EF9AA
:1043200000BF00BF00BF9FE7FA000020FC00002094
:10433000204821482148224822482348234824482D
:1043400024482548254826482648274827482848FD
:104350002848294829482A482A482B482B482C48CD
:104360002C482D482D482E482E482F482F4830489D
:10437000304831483148324832483348334834486D
:10438000344835483548364836483748374838483D
:104390003848394839483A483A483B483B483C480D
:1043A0003C483D483D483E483E483F483F484048DD
:1043B00000BF704724B700088CB8000826B7000873
:1043C00027B7000828B700082CB7000830B7000846
:1043D0002DB7000862B7000864B7000884B700086A
:1043E00088B700088AB700088CB700088EB70008A5
:1043F00090B70008BCB70008BDB70008BEB70008FA
:10440000C0B70008C2B70008C3B70008C4B70008A7
:10441000C6B70008C8B70008CAB70008CCB700087C
:10442000CEB70008D0B7000800B8000801B80008EF
:1044300002B8000803B8000804B8000806B800086D
:1044400008B8000830B8000831B8000832B80008D1
:1044500033B8000834B8000836B8000838B8000887
:104460003CB800083DB800083EB800083FB8000856
:1044700040B8000841B8000842B8000843B8000836
:1044800044B8000846B8000847B8000848B8000813
:104490004AB800084CB800084DB8000850B80008E9
:1044A00084B8000885B8000886B8000888B80008F5
:1044B0008AB8000870B502460B4610461146103106
:1044C0005E1EB5B2002408E0016000264660068149
:1044D000C66010301031661CB4B2AC42F4DB00266A
:1044E000066046600681C66070BD10B5044671481E
:1044F000018871480068FFF7DDFF6F4800686F4969
:1045000008606C48008888800020C880088120806E
:1045100010BD10B5014648894B89002B17DD0A688C
:10452000664B1B681360654C4B6823602346DB8831
:104530004C891B1B614CE38023469B884C89234498
:104540005E4CA38000234B818B810B604B6010BDC0
:104550000181002242818281026042607047F0B591
:1045600004460D46608940B90020288002B11060E1
:1045700046F2925018800020F0BD61684E680889AC
:1045800028800AB1C868106008686060606818B95F
:1045900000202060608102E06089401E6081474801
:1045A00000680860454801608088401C434FB8801F
:1045B0003846C088401EF880002018803046DBE76F
:1045C0002DE9F0410D46DDE90674B0F80AC0B0F8F7
:1045D0000880C44505DB46F2935CA4F800C0BDE842
:1045E000F081DFF8D8C0BCF804C0BCF1000F04D1E2
:1045F00045F21D7CA4F800C0F1E7DFF8C0C0DCF88C
:104600000010DFF8B880D1F800C0C8F800C0C44678
:10461000BCF804C0ACF1010CA8F804C0C446BCF856
:1046200006C00CF1010CA8F806C0C446BCF808C0CE
:10463000B8F80680C44507DADFF880C0BCF806C0C9
:10464000DFF87880A8F808C0B0F80AC0BCF1000F05
:1046500006D1016041604FF0010CA0F80AC015E0DE
:1046600013F0100F07D1066831604FF0000CC1F84D
:1046700000C0016004E0D0F804C0C1F800C041608F
:10468000B0F80AC00CF1010CA0F80AC0B0F80CC0D8
:10469000B0F80A80C44503DAB0F80AC0A0F80CC02C
:1046A0004D600A81CF604FF0000CA4F800C000BF3D
:1046B00095E70000B8B60008C0B6000898210020B1
:1046C000F7A1C16100214161F649096811B90021D2
:1046D000816105E0F34909688161F249096848612F
:1046E000F049086070472DE9F04104460D46164632
:1046F000002700BF00BFFDF76DFF074600BF00BFEA
:10470000E948206065600020206284F82500A062EE
:10471000402084F8240004F10800FFF7A8FC20469C
:10472000FFF7CEFFE1480088401CE049088000BF49
:1047300000BF3846FDF752FF00BF00BF00203080A9
:10474000BDE8F0812DE9F04788B0054688469146DE
:104750001C46109E4FF0000A0CB10020206000BFE4
:1047600000BFFDF737FF824600BF00BF95F8250068
:10477000D0B9CF4800682862CD48006890F837006B
:1047800085F82400012085F825000CB1A86A206076
:1047900000BF00BF5046FDF721FF00BF00BF002053
:1047A000308008B0BDE8F087C149286A09688842AE
:1047B00012D195F82500401C85F825000CB1A86A97
:1047C000206000BF00BF5046FDF708FF00BF00BFDC
:1047D00045F282703080E4E719F4004F0AD000BF40
:1047E00000BF5046FDF7FAFE00BF00BF46F2B01012
:1047F0003080D6E7AF48007800280ADD00BF00BF50
:104800005046FDF7EBFE00BF00BF46F66350308018
:10481000C7E72F6A97F83700A549096891F837105C
:1048200088423ADD97F8360008282AD2DFE800F0FF
:1048300004151E1F171620213846FFF74CFA9C4816
:10484000006890F8370087F8370097F8370000F0D5
:1048500069F93846FFF702FB1EE000BF00BF94482D
:10486000006890F8370087F8370015E000BF00BFF8
:1048700000BF8F48006890F837103846FFF7D4FB28
:104880000AE000BF00BF5046FDF7A8FE00BF00BF12
:1048900046F62D60308084E700BF43460422294657
:1048A0006846FFF75FFA00BF00BF5046FDF796FE6F
:1048B00000BF00BFFEF7F5FF00BF00BFFDF78AFE97
:1048C000824600BF00BF7A48006890F8350030B1DA
:1048D00001280CD002281AD0032821D110E01CB1E5
:1048E00073480068006C2060002030801CE01CB120
:1048F0006F480068006C206046F2A910308013E019
:104900000CB10020206047F2D92030800CE01CB1AF
:1049100067480068006C206045F6C250308003E0B4
:1049200046F62E60308000BF00BF00BF00BF50467B
:10493000FDF754FE00BF00BF00BF32E72DE9F84F7E
:104940000446894615464FF0000A00BF00BFFDF738
:1049500041FE824600BF00BF5549206A096888426F
:104960000BD000BF00BF5046FDF738FE00BF00BFB0
:1049700045F281702880BDE8F88F4FF0000804F1FF
:104980002504C4F803802078A0F10100207014F8F9
:10499000250900280ADD00BF00BF5046FDF71EFEB6
:1049A00000BF00BF45F283702880E4E704F10807E8
:1049B000388968B90020206284F8250000BF00BF54
:1049C0005046FDF70BFE00BF00BF00202880D2E755
:1049D0003748006890F8370094F82410884219D0BE
:1049E00033480068FFF777F994F8240030490968E4
:1049F00081F837002E49096891F8370000F092F8E5
:104A00002B480068FFF768FA2948006890F83700DB
:104A10002949087038688668266296F8370084F855
:104A20002400012084F8250000231A463146204640
:104A3000CDF80080FFF7AEFB00BF00BF5046FDF78A
:104A4000CDFD00BF00BF19F4004F01D1FEF729FFD3
:104A50000020288000BF8EE710B50446174820606C
:104A600017A060600020206284F82500A06240202A
:104A700084F8240004F10800FFF7F9FA10BD426938
:104A800081693AB9074B196009B100234B610023D2
:104A900083611EE0C1B900239361436119E0000006
:104AA00020000000E80000204D555458EC00002084
:104AB00050010020FA000020EE0000204E4F4E452D
:104AC0003F4D55544558000091614A610023836170
:104AD000436170470021034A1160034A118001803D
:104AE00070470000E8000020EC000020002004E0F7
:104AF00000211C4A42F82010401C0228F8D37047BD
:104B000070B50025174C03E005F12000C5B2241D47
:104B100020680028F8D02068FDF767FD2844C5B25A
:104B2000284670BD30B5420900F01F030121C3F1D2
:104B30001F04A1400B4C54F822400C43094D45F88A
:104B4000224030BD30B5420900F01F030121C3F1FE
:104B50001F04A140034C54F822408C43014D45F8FA
:104B6000224030BDBC000020EDA1C16100214161A7
:104B7000EC49096811B90021816105E0E94909683A
:104B80008161E84909684861E649086070472DE994
:104B9000F04104460D4616461F464FF0000800BF80
:104BA00000BFFDF717FD804600BF00BFDE48206054
:104BB0006560314604F12000FFF7CAFC04F10800EB
:104BC000FFF755FA2046FFF7CFFFD8480088401C72
:104BD000D649088000BF00BF4046FDF7FFFC00BF7C
:104BE00000BF00203880BDE8F0812DE9F04F89B08A
:104BF0000746884691461E46DDE912454FF0000BF8
:104C00000CB10020206000BF00BFFDF7E3FC83462D
:104C100000BF00BF2B462246314607F12000FFF7B8
:104C20009EFC8246288850B900BF00BF5846FDF759
:104C3000D5FC00BF00BF504609B0BDE8F08F19F4A5
:104C4000004F0BD000BF00BF5846FDF7C7FC00BFA8
:104C500000BF46F2B01028800020EDE7B44800788D
:104C600000280BDD00BF00BF5846FDF7B7FC00BFB2
:104C700000BF46F6635028800020DDE7434605224A
:104C8000394601A8FFF76EF800BF00BF5846FDF790
:104C9000A5FC00BF00BFFEF704FE00BF00BFFDF78C
:104CA00099FC834600BF00BFA248006890F8350019
:104CB00030B1012815D002282AD0032835D11DE0B3
:104CC0009C480068D0F85CA09A480068B0F8600082
:104CD00030801CB197480068006C2060002028805C
:104CE0002BE04FF0000A002030801CB19148006892
:104CF000006C206046F2A91028801EE04FF0000AE8
:104D00000020308004B1206047F2D920288014E0D0
:104D10004FF0000A002030801CB186480068006C0B
:104D2000206045F6C250288007E04FF0000A0020BE
:104D3000308046F62E60288000BF00BF00BF00BF55
:104D40005846FDF74BFC00BF00BF504674E72DE905
:104D5000F05F80460D4616464FF0000B00BF00BFC7
:104D6000FDF738FC834600BF00BF08F10804208926
:104D700060B900BF00BF5846FDF730FC00BF00BF60
:104D800046F2AB1030800020BDE8F09F0027BA4605
:104D90000DE02068D0F80890524649464046FFF79B
:104DA000D9F8781C87B2B5F5807F00D002E0208961
:104DB0000028EEDC00BF00BF00BF5846FDF70EFC28
:104DC00000BF00BF15F4004F01D1FEF76AFD0020BF
:104DD00030803846D8E72DE9F04F85B007468A463F
:104DE00093461C460020029000BF00BFFDF7F2FB77
:104DF000029000BF00BF07F108063089E0B914F047
:104E0000100F02D14FF0000801E04FF01008DDE96B
:104E10000E0143465A46CDE90001514607F12000F4
:104E2000FFF7CEFB00BF00BF0298FDF7D7FB00BF26
:104E300000BF05B0BDE8F08F14F4007F01D03589C4
:104E400000E00125D6F8009011E0D9F808000390A1
:104E5000D9F8040004900E985B46524600903846FC
:104E60000399FFF797F9DDF81090681E85B2002DC1
:104E7000EBD100BF00BF0298FDF7B0FB00BF00BF41
:104E800014F4004F01D1FEF70CFD00210F980180B2
:104E900000BFCEE72DE9FC4704460D4616461F46E7
:104EA000DDF828904FF000083B4632462946204660
:104EB000CDE90089FFF78FFFBDE8FC8710B50446F8
:104EC00004F12000FFF725FB1B4820601BA0606059
:104ED000002104F12000FFF73BFB04F10800FFF77D
:104EE000C6F810BD426981693AB90E4B196009B123
:104EF00000234B610023836109E019B9002393610A
:104F0000436104E091614A6100238361436170471A
:104F10000021044A1160054A118001807047000099
:104F200020000000F400002051554555F8000020F5
:104F3000FA000020500100204E4F4E453F51000026
:104F4000F8A1C16100214161F749096811B9002147
:104F5000816105E0F44909688161F34909684861A4
:104F6000F149086070472DE9F04104460D461646A8
:104F70001F464FF0000800BF00BFFDF72BFB804627
:104F800000BF00BFE94820602662002060626560C3
:104F900004F10800FFF76BF82046FFF7D1FFE44863
:104FA0000088401CE249088000BF00BF4046FDF772
:104FB00015FB00BF00BF00203880BDE8F0812DE95F
:104FC000F04788B00546884691461C46109E4FF033
:104FD000000A0CB10020206000BF00BFFDF7FAFA04
:104FE000824600BF00BF286A98B1286A401E286226
:104FF0000CB1686A20602F6A00BF00BF5046FDF701
:10500000EDFA00BF00BF00203080384608B0BDE890
:10501000F08719F4004F0CD02F6A00BF00BF504634
:10502000FDF7DCFA00BF00BF46F2B0103080384612
:10503000ECE7C048007800280BDD00BF00BF5046F9
:10504000FDF7CCFA00BF00BF46F663503080002069
:10505000DCE74346062229466846FEF783FE00BF8A
:1050600000BF5046FDF7BAFA00BF00BFFEF719FCBB
:1050700000BF00BFFDF7AEFA824600BF00BFAE48DA
:10508000006890F8350030B101280CD002281AD001
:10509000032821D110E01CB1A7480068006C2060F3
:1050A0000020308024E01CB1A3480068006C206020
:1050B00046F2A91030801BE00CB10020206047F2BE
:1050C000D920308014E01CB19B480068006C20603F
:1050D00045F6C25030800BE046F62E60308000BFAF
:1050E00000BF5046FDF77AFA00BF00BF00208DE7F1
:1050F00000BF2F6A00BF00BF5046FDF76FFA00BF28
:1051000000BF384682E72DE9F05F80460D4616461F
:105110004FF0000B00BF00BFFDF75CFA834600BFF5
:1051200000BF08F10804208960B900BF00BF5846DD
:10513000FDF754FA00BF00BF46F2AB1030800020EC
:10514000BDE8F09F0027BA460DE02068D0F808902F
:10515000524649464046FEF7FDFE781C87B2B5F53B
:10516000807F00D002E020890028EEDC00BF00BF75
:1051700000BF5846FDF732FA00BF00BF15F4004FDC
:1051800001D1FEF78EFB002030803846D8E72DE9AC
:10519000FF5F0446884691461D460020019000BFEF
:1051A00000BFFDF717FA019000BF00BF04F1080728
:1051B000388900284FD10420012804D0022814D0B7
:1051C000042834D123E0206AFF280DD100BF00BF9E
:1051D0000198FDF703FA00BF00BF46F6C5502880CE
:1051E000002004B0BDE8F09F22E0206AA0F57F41D6
:1051F000FF390BD100BF00BF0198FDF7EFF900BFE9
:1052000000BF46F6C55028800020EAE710E0206A7B
:10521000401C0BD100BF00BF0198FDF7DFF900BFB4
:1052200000BF46F6C55028800020DAE700E000BF46
:1052300000BF206A401C2062D4F820A0C4F824904B
:1052400000BF00BF0198FDF7C9F900BF00BF0020F3
:1052500028805046C5E718F4007F01D03E8900E061
:105260000126D7F800B011E0DBF808000290DBF867
:105270000400039000231A46CDF8009020460299BE
:10528000FEF788FFDDF80CB0701E86B2002EEBD161
:10529000D4F820A000BF00BF0198FDF79FF900BF20
:1052A00000BF18F4004F01D1FEF7FBFA0020288060
:1052B000504696E72DE9F04105460E4614464FF05C
:1052C00000082346424631462846FFF760FF07465E
:1052D0003846BDE8F0812DE9F04104460D461646FA
:1052E0004FF000080020308000BF00BFFDF772F9CA
:1052F000804600BF00BF206A08B1256208E004F1C3
:105300000807388908B9256202E047F25F1030804B
:1053100000BF00BF4046FDF761F900BF00BFBDE818
:10532000F0810000200000000401002053454D41A1
:1053300008010020FA0000205001002010B50446AA
:105340001448206000202062606213A0606004F1B5
:105350000800FEF78CFE10BD426981693AB9104B16
:10536000196009B100234B610023836109E019B979
:1053700000239361436104E091614A6100238361EA
:10538000436170470021064A1160064A118001807E
:10539000704700004E4F4E453F53454D0000000002
:1053A00004010020080100202DE9F04107464FF0DC
:1053B000000800BF00BFFDF70DF9804600BF00BF29
:1053C0000020FE490880FE490860FE490860FE4949
:1053D0000860FE49088100BF00BF4046FDF7FEF8A7
:1053E00000BF00BF00BF00BFFDF7F4F8804600BF5C
:1053F00000BFF748046800BF00BF4046FDF7EEF865
:1054000000BF00BF1EE000BF00BFFDF7E3F880460D
:1054100000BF00BF002044F8780FA06220616081C7
:10542000A081E0612062A061A4F1780404F1640627
:10543000B081D4F8B04000BF00BF4046FDF7CEF8C1
:1054400000BF00BF002CDED100BF00BFFDF7C2F8D7
:10545000804600BF00BFDF48056800BF00BF404670
:10546000FDF7BCF800BF00BF12E000BF00BFFDF7B2
:10547000B1F8804600BF00BF05F120060020B081D2
:10548000AD6900BF00BF4046FDF7A8F800BF00BFF0
:10549000002DEAD101F094FC02F0C7F8002038801A
:1054A000BDE8F081F8B5044600266946CA4801F017
:1054B0001DFABDF8000018B1BDF800002080F8BD4D
:1054C0006A460021022001F0A9FCBDF8000018B1D5
:1054D000BDF800002080F2E700BF00BFFDF77AF8BA
:1054E000064600BF00BF0020BC49086000BF00BFE7
:1054F0003046FDF773F800BF00BF0025B8480068CC
:10550000B8490968884205D9B5480068B5490968AD
:10551000B0FBF1F525B9B24800680A21B0FBF1F5FE
:105520006A460021284601F079FC6946AA4800F045
:10553000B5FEBDF8000018B1BDF800002080BEE740
:1055400000BF00BFFDF746F8064600BF00BF0020C1
:105550009B490860A1480068A34908600120A3494D
:10556000087000BF00BF3046FDF738F800BF00BF2D
:105570000020208000BFA2E786B00020009000BF7E
:1055800006E098490968480001AA002101F046FC9C
:10559000964800780128F4D101A8FFF705FF0027FD
:1055A0008F4800688F490968884205D98C4800688F
:1055B0008C490968B0FBF1F727B9894800680A21CE
:1055C000B0FBF1F753E14FF0000A00BF00BFFDF759
:1055D00001F8009000BF00BF80480068844908605F
:1055E00000207E49086000BF00BF0098FCF7F6FF6E
:1055F00000BF00BF7C4800687D490968884248D9DF
:10560000794800687B49884205D242F210700390C5
:105610000120029023E0744800687749884205D24F
:105620004FF47A7003900A20029018E06E480068E8
:105630007249884203D26420039002900FE06A48C6
:1056400000686F49884205D20A2003904FF47A70AF
:10565000029004E00120039042F210700290624830
:1056600001680298B1FBF0F9614903980968484361
:10567000B0FBF9F042F21071081A624908804F48F5
:1056800000880988884208DA5E4800884B4908800B
:1056900003E042F210705B490880FDF757FE0025D9
:1056A00000BF00BFFCF796FF009000BF00BF484856
:1056B000046800BF00BF0098FCF790FF00BF00BF68
:1056C00026E000BF00BFFCF785FF009000BF00BFD1
:1056D00054F8940F6060002044F8940900BF00BFA4
:1056E0000098FCF77BFF00BF00BFD4F8980005448A
:1056F00000BF00BFFCF76EFF009000BF00BFD4F8F2
:10570000B04000BF00BF0098FCF768FF00BF00BFBB
:10571000002CD6D145B33748854205D242F21070ED
:1057200005904FF0010B1BE03348854205D24FF442
:105730007A7005904FF00A0B12E03048854203D290
:105740006420059083460BE02D48854204D20A2050
:1057500005904FF47A7B03E00120059042F2107B24
:10576000B5FBFBF0049003E00020059001200490BD
:1057700000BF00BFFCF72EFF009000BF00BF144821
:10578000046800BF00BF0098FCF728FF00BF00BFFF
:1057900053E0D4F89800059948430499B0FBF1F020
:1057A00086B242F21070864200D90646A4F88260A2
:1057B000B4F88400B04229DA26E000000E0100208F
:1057C0002001002034010020400100209821002009
:1057D00028010020F40000201426002010010020E1
:1057E000E0B60008C8B60008140100201C01002023
:1057F00018010020801A060000093D00005A6202CC
:105800000084D7170C010020A4F8846001AB04F1D8
:10581000A402111D204600F08DFF00BF00BFFCF761
:10582000D9FE009000BF00BFD4F8B04000BF00BF59
:105830000098FCF7D3FE00BF00BF002CA9D12F4871
:105840000078012805D100202C49087001A8FFF735
:10585000ABFDCAF100082A480068404502D228483A
:10586000C0F8008001AA0021384601F0D7FAAAE664
:1058700010B58AB004460020224908602249086019
:1058800022490860224908701C49087021480068B4
:1058900020B946F62B6020800AB010BD1E48006873
:1058A0001E490968884203D246F62C602080F3E73F
:1058B0001B4800783F2803D346F62A602080EBE798
:1058C000032000210591CDE90704069108461249FD
:1058D0000968144A12680F4B1B68CDE90132CDE903
:1058E00003100F4800780023AFF273320EA100902E
:1058F000124800F013F900BFCEE700000A010020B3
:1059000020010020100100201801002014010020B7
:105910001C010020CCB60008D4B60008DCB6000894
:10592000C4B60008D0B6000875432F4F532D49491F
:10593000492053746174205461736B00A4240020C7
:105940002DE9F04104460D4616464FF000083F2D64
:1059500004D346F273203080BDE8F0818CB900BFDB
:1059600000BFFCF737FE804600BF00BFFC4804685C
:1059700000BF00BF4046FCF731FE00BF00BF01275B
:1059800000E0002700BF00BFFCF724FE804600BFF8
:1059900000BF94F8360008283AD2DFE800F0041778
:1059A0001C1D18191E1F2046FEF795F984F8375064
:1059B00094F83700FFF7B6F8012F03D12046FEF721
:1059C0004DFA02E02046FEF787FA2CE000BF00BF48
:1059D00084F8375027E000BF00BF00BF94F83400C0
:1059E000082812D2DFE800F01106040A090B0C05A2
:1059F00000BF00BF84F8375008E000BF00BF00BF01
:105A000029462046FEF710FB00E000BF00BF0AE079
:105A100000BF00BF4046FCF7E1FD00BF00BF46F6F7
:105A20002D60308098E700BF00BF00BF4046FCF704
:105A3000D5FD00BF00BFFDF734FF0020308000BF60
:105A40008AE70021C0F8AC10C649096819B90021DD
:105A5000C0F8B01007E0C3490968C0F8B010C149E8
:105A60000968C1F8AC00BF490860704770B50446CA
:105A700000202060A0606060E06020616061A06143
:105A8000E061B9A0206200206062A062E062206351
:105A9000E0872064E065A4F86000002104F1640060
:105AA000FEF756FD00206067A067002506E0002194
:105AB00004F17C0040F82510681CC5B2002DF6D01A
:105AC000002004F134042061A066E066606084F880
:105AD0004C006067206720814FF0004060614FF00C
